:040000000BEF00F012
:100008004982FACF02F0FBCF03F0FAED00F05BEF84
:1000180002F02CC02EF02F6A306A2B342E3601E302
:100028002F802E50386E3850D8A409D0000E2A6E72
:10003800000E2B6E000E2C6E000E2D6E1200170E89
:100048002E6E2AC02FF02BC030F02CC031F02E2895
:10005800326E04D0D890313230322F32322EFAD765
:100068002F50336E2B8EFF0E2A16FF0E2B16000E06
:100078002C162A50346E2B50356E2C50366E376A3B
:100088008E0E385E38AE16D03850800A8F0FD8B032
:1000980009D0000E2A6E000E2B6E000E2C6E000E7C
:1000A8002D6E1200D8903732363235323432383E1F
:1000B800F9D715D0170E38640FD0000E2A6E000E2F
:1000C8002B6E000E2C6E000E2D6E1200D89034365A
:1000D80035363636373638063850D8A4F7D7335041
:1000E800D8B408D0371E361E351E346C000E3522A3
:1000F8003622372234C02AF035C02BF036C02CF017
:1001080037C02DF012001DC021F0226A236A1C346A
:10011800213601E322802150286E2850D8A407D028
:10012800000E1B6E000E1C6E000E1D6E120020C00D
:1001380021F0226A236A1F34213601E322802150EC
:10014800296E2950D8A407D0000E1B6E000E1C6E15
:10015800000E1D6E1200000E256E000E266E000E9B
:10016800276E2950890F285E1DC029F02050291AB2
:10017800800E29161C8EFF0E1B16FF0E1C16000E75
:100188001D161F8EFF0E1E16FF0E1F16000E2016C0
:10019800180E246ED8902536263627361E501B5C3E
:1001A8001F501C5820501D58D8A007D01E501B5E49
:1001B8001F501C5A20501D5A2580D8901B361C36BB
:1001C8001D36242EE7D725C010F026C011F027C011
:1001D80012F028C013F029C014F064EC01F010C02C
:1001E8001BF011C01CF012C01DF012000600E9CF70
:1001F80004F0EACF05F0E1CF06F0E2CF07F0D9CF5F
:1002080008F0DACF09F0F3CF0AF0F4CF0BF0F6CF0D
:100218000CF0F7CF0DF0F8CF0EF0F5CF0FF09EAA47
:1002280009D0ABB402D0ABA203D0AB984286AB885E
:10023800AECF46F0F2A403D03C4A3D2AF294F2A095
:1002480021D081AE0FD042A803D081884298428441
:1002580042B202D0428201D0429242A202D0818CA4
:1002680001D0819C81AA0DD0848282808480820EF4
:10027800016EDE0EE82EFED7012EFCD78290849008
:100288008492F2900FC0F5FF0EC0F8FF0DC0F7FF83
:100298000CC0F6FF0BC0F4FF0AC0F3FF09C0DAFF79
:1002A80008C0D9FF07C0E2FF06C0E1FF05C0EAFFAA
:1002B80004C0E9FF03C0FBFF02C0FAFF4992110026
:1002C8001350D8B405D0105011101210D8A40CD067
:1002D800000E106E000E116E000E126E1200132A20
:1002E800D890123211321032000E1014156E000E12
:1002F8001114166EFE0E1214176E155016101710E4
:10030800D8B40CD0ECD7132A010E1026000E1122F7
:10031800000E1222D890123211321032000E101430
:10032800156E000E1114166EFF0E1214176E15506E
:1003380016101710D8B406D0E6D71306D890103682
:100348001136123611BE03D0020E1360F6D713A071
:10035800119ED8901332135012121450D8A4128E32
:1003680010C010F011C011F012C012F01200938EDC
:10037800939C938A9398938693949494949294904C
:100388009690969296949568A9EC02F0000E3A6EB3
:100398001E0E396E3AEC02F0B6EC02F0D3EC02F025
:1003A80089EC02F0EAEC02F004EC02F09AEC02F0BC
:1003B80081B60DD000F000D000D0828200F000D0CD
:1003C80000D0829283CF3FF03F50DAEC02F081B642
:1003D80042A409D08184410E3B6EEE0EE82EFED772
:1003E8003B2EFCD700D047503C18E2E148503D185E
:1003F800D8A4DED74288000E3D6E000E3C6ED8D7DA
:10040800C2EC02F0E5EC02F0C2EC02F0D00ECBEC4C
:1004180002F0C2EC02F0000ECBEC02F0C2EC02F0EB
:10042800000ECBEC02F0C2EC02F0080ECBEC02F0AE
:10043800C2EC02F0080ECBEC02F0C2EC02F0040EA3
:10044800CBEC02F0C2EC02F0170ECBEC02F0C2ECDF
:1004580002F0040ECBEC02F0C2EC02F0000ECBEC82
:1004680002F0C2EC02F0E0EC02F0120043C01EF011
:1004780044C01FF045C020F039C018F03AC019F048
:1004880077EC02F018C01BF019C01CF01AC01DF060
:1004980087EC00F01BC02AF01CC02BF01DC02CF00C
:1004A8000DEC00F02AC047F02BC048F01200426A59
:1004B800416A406A3F6A3E6A3D6A3C6ADE0EF66EF1
:1004C800050EF76E000EF86E00EE43F010EE04F025
:1004D8000900F5CFEEFFE550E150FAE14990499265
:1004E8000001BBEF01F018C010F019C011F0126A3A
:1004F8008E0E136E000E146E64EC01F010C018F02E
:1005080011C019F012C01AF0120093809382310EB4
:10051800C86E9E96000EC76EC78EC79C000EC66E2C
:10052800C650F00B0809C66EC68A120084948480EF
:1005380082808198828482928194819C100EE82E18
:10054800FED700D0849082901200D59AD598D5967F
:10055800D59CD584D592D580F184F294F28AF28E16
:10056800F28C1200AC9CAC8AAC98AC84AB8EAB9C81
:10057800AB88B896810EAF6EB89A1200C5CF10F04E
:100588001F0E1016D8A4FAD7C7A41200F7D7106EFA
:1005980010C0C9FF9EA6FED79E96C55012009D9812
:1005A8009E989D8A9E9AF28CF28E1200106E9EA8DA
:1005B800FED710C0ADFF1200C5849EA6FED79E963A
:1005C8001200C5809EA6FED79E961200F286F29073
:0A05D800F28EF28C1200C9563F5853
:020000040020DA
:08000000FFFFFFFFFFFFFFFF00
:020000040030CA
:0E000000000C191EFF8080FF0FC00FE00F40A4
:00000001FF
